:020000040800F2
:100000000000022009850008F1830008F38300083E
:10001000F5830008F7830008F9830008000000005A
:10002000000000000000000000000000416800081F
:10003000FB83000800000000E16800084569000833
:100040005D8500085D8500085D8500085D85000808
:100050005D8500085D8500085D8500085D850008F8
:100060005D8500085D8500085D8500085D850008E8
:100070005D8500085D8500085D8500085D850008D8
:100080005D8500085D8500085D850008FD8300082A
:100090005D8500080D8400085D8500085D85000809
:1000A0005D8500081D8400085D8500085D850008E9
:1000B0005D8500085D8500085D8500085D85000898
:1000C0005D8500085D8500085D8500085D85000888
:1000D0005D8500085D8500085D8500085D85000878
:1000E0005D8500085D850008000000005D85000852
:1000F0005D8500085D8500085D8500085D85000858
:100100005D8500085D8500085D8500085D85000847
:100110005D8500085D8500085D8500085D85000837
:100120005D8500085D8500085D8500085D85000827
:100130005D8500085D8500085D8500085D85000817
:1001400000000000000000000000000000000000AF
:100150005D8500085D8500085D8500085D850008F7
:100160005D8500085D8500085D8500085D850008E7
:100170005D8500085D8500085D85000800000000C1
:100180005D8500085D8500085D8500085D850008C7
:100190005D8500085D8500085D8500085D850008B7
:1001A0005D8500085D8500085D8500085D850008A7
:1001B0005D8500085D8500085D8500085D85000897
:1001C0005D8500085D8500085D8500085D85000887
:1001D0005D8500082D8400085D8500085D850008A8
:1001E0005D8500085D8500085D8500085D85000867
:1001F0005D8500085D8500085D8500085D85000857
:100200005D8500085D8500085D8500085D85000846
:100210005D8500085D8500085D8500085D85000836
:100220005D8500085D8500085D8500080000000010
:100230005D8500085D850008000000005D85000800
:100240005D8500085D8500085D8500085D85000806
:100250005D8500085D8500085D8500085D850008F6
:100260005D8500085D8500085D8500085D850008E6
:100270005D8500085D8500085D85000800000000C0
:100280005D8500085D8500085D85000800000000B0
:08029000000000005D8500087C
:1002A00010B5054C237833B9044B13B10448AFF3B0
:1002B00000800123237010BD7000002000000000AA
:1002C000D485000808B5034B1BB103490348AFF3BD
:1002D000008008BD0000000074000020D4850008E4
:1002E00010B5032000F056F802F088FA0F498B6928
:1002F000C3F303230E4AD35C03F01F03D8408B697A
:1003000003F00F03D35C03F01F0320FA03F3094A41
:100310001360094B18600F2008F022F810B1012477
:10032000204610BD044607F0E7FEF9E700440258F6
:10033000808800086C00002068000020034B1B78B8
:10034000034A11680B441360704700BF000000208F
:100350008C000020014B1868704700BF8C00002003
:1003600038B50446FFF7F6FF0546B4F1FF3F02D06B
:10037000044B1B781C44FFF7EDFF401BA042FAD34F
:1003800038BD00BF00000020014B1868000C70470A
:100390000010005C0649CB6823F4E0631B041B0CCF
:1003A000000200F4E0600343024A1A43CA60704747
:1003B00000ED00E00000FA0500B5174BDB68C3F361
:1003C0000223C3F1070CBCF1040F28BF4FF0040C4B
:1003D00003F1040EBEF1060F14D9033B4FF0FF3EAC
:1003E0000EFA0CFC21EA0C0199400EFA03F322EA02
:1003F00003031943002807DB0901C9B2074B19544D
:100400005DF804FB0023E9E700F00F000901C9B221
:10041000034B1954F4E700BF00ED00E000E400E0F6
:1004200014ED00E0002807DB00F01F024009012363
:100430009340024A42F82030704700BF00E100E0DC
:1004400030B4446B0368D3F884106F4A114041EA1A
:100450008401C3F884100368D3F8841021F47F0169
:10046000856B41EA0541C3F88410836B234404681B
:10047000D4F88810114041EA8301C4F88810046858
:10048000D4F8881021F4FE01C56B41EA0541C4F897
:100490008810C16B03EB41030468D4F8A01011402D
:1004A00041EA8301C4F8A0100468D4F8A01021F434
:1004B000FE01056C41EA0541C4F8A010016C446CD2
:1004C00004FB01330468D4F8B010114041EA830101
:1004D000C4F8B0100468D4F8B01021F4FE01856CA3
:1004E00041EA0541C4F8B010816CC46C04FB0133CF
:1004F0000468D4F8AC10114041EA8301C4F8AC1090
:10050000016D446D04FB01330468D4F8F010114010
:1005100041EA8301C4F8F0100468D4F8F01021F423
:100520007C11856D41EA0541C4F8F010816D03EB43
:1005300041030468D4F8C0100A4042EA8303C4F8B7
:10054000C0300268D2F8C03023F47C13C16D43EA96
:100550000143C2F8C0300268D2F8C03023F07C53A7
:10056000016E43EA0163C2F8C030436B274A1A4464
:100570009200C266836B02EB83030367C16B03EBDC
:10058000C1034367016C446C04FB01F103EB81037D
:100590008367816CC46C04FB01F103EB8103C367C7
:1005A000016D446D04FB01F103EB8103C0F8803061
:1005B000816D03EBC103C0F88430816EC46D01FB13
:1005C00004FC03EB8C03C0F88830046E04FB01F1DB
:1005D00003EB8103C0F890300D498B420DD9D0F860
:1005E0009C3043F02003C0F89C30032380F89830FF
:1005F000012007E0002342F8043BD0F890309342FA
:10060000F8D8002030BC70470300FFFF002B00101B
:10061000FCD3004070B54C68FCB90D698C6825436B
:100620000C6845EA84450E6ACC6944EA06648E6922
:1006300034434E693443CE6844EA0644D0F88460BB
:10064000806E00FB03F306EB830E46F82350CEF8D2
:1006500004400EF1080E002019E00C698D68254356
:100660000C68254345F08045DDE702EB000C9CF863
:1006700003409CF802301B0443EA04639CF80140E9
:1006800043EA0423145C23434EF8043B0430CB6854
:10069000024CE35C8342E8D870BD00BF6887000865
:1006A00030B595B004464C22A04901A807F07CFF64
:1006B000002C00F0388123689D4A934220D094F8A2
:1006C00098300BB32268936923F010039361FFF70E
:1006D00041FE054623689A6912F0080F1AD0FFF709
:1006E00039FE431B0A2BF5D9D4F89C3043F00103A3
:1006F000C4F89C30032384F89830012015B030BD35
:1007000003F580736360DAE784F89930204607F0D8
:1007100005FDD7E79A6942F001029A61FFF71AFED8
:10072000054623689A6912F0010F0FD1FFF712FEF8
:10073000401B0A28F5D9D4F89C3043F00103C4F8D3
:100740009C30032384F898300120D7E79A6942F05F
:1007500002029A61237C012B40D02268936943F006
:1007600040039361637C012B3ED02268936923F49C
:1007700080439361A37C012B3CD02268936943F4AE
:10078000805393612268936923F44073A1680B43FB
:1007900093612268936923F0A4039361226813692B
:1007A00023F010031361E368012B29D0002B2CD018
:1007B000022B00F09B802268936943F080039361D1
:1007C0002268136943F010031361E368032B1CD103
:1007D0002268936943F02003936116E022689369CD
:1007E00023F040039361BDE72268936943F480439B
:1007F0009361BFE72268936923F480539361C1E753
:100800002268936943F004039361A3695A1EE36964
:10081000013B1B0243EA4263226A013A13436269C5
:10082000013A216843EA0243CB61A368B3F5407FF4
:1008300062D0236E33B12268D2F8C030616E0B43B0
:10084000C2F8C030E36D226ED3420DD02168D1F8DA
:10085000C83023F00703A26E14A800EB820252F8FE
:100860004C2C1343C1F8C830236C6BB12168D1F80C
:10087000BC3023F00703626C14A800EB820252F82C
:100880004C2C1343C1F8BC30A36C73B12168D1F870
:10089000BC3023F07003E26C14A800EB820252F823
:1008A0004C2C43EA0213C1F8BC30236D73B12168AC
:1008B000D1F8BC3023F4E063626D14A800EB82022F
:1008C00052F84C2C43EA0223C1F8BC302268184B82
:1008D0009A4222D00023C4F89430C4F89C300123FB
:1008E00084F898302046FFF7ABFD07E7226893694C
:1008F00043F02003936188E7A36A013BE26A013A6F
:1009000043EA0223226B013A43EA0213626A013A84
:10091000216843EA0243CB608BE76268936823F067
:1009200003039360D6E70120E8E600BFEC850008EA
:1009300000A0004090F89830013BDBB2012B07D9B2
:10094000D0F89C3043F00203C0F89C30012070477F
:10095000CB680A68D2B9072B0ED08A68DB0643EA57
:1009600082730A6943EA02434A691343C26E4968C3
:1009700042F82130002070470A69CB691B0243EA24
:1009800002438A69134343F06053EFE710B40A69E6
:1009900042EA4372072B0FD04B698C6843EA847399
:1009A000006F496800EBC10C40F83120CCF80430EE
:1009B00000205DF8044B70478B69F1E790F898C010
:1009C0005FFA8CFCBCF1010F07D0D0F89C3043F0EB
:1009D0000403C0F89C3001207047920042EA0112E3
:1009E00042EA4302036800990A43C3F880200020CA
:1009F000704790F89830DBB2012B07D0D0F89C30CC
:100A000043F00403C0F89C3001207047022380F8B3
:100A100098300268936923F0010393610023C0F8C2
:100A20009C301846704790F89830DBB2022B3ED1CC
:100A30000268936943F0010393610023026891699E
:100A400011F0010F0ED1322B01D80133F6E7D0F8A7
:100A50009C3043F00103C0F89C30032380F89830A9
:100A600001207047936923F010039361002302680B
:100A7000916911F0080F0ED0322B01D80133F6E73F
:100A8000D0F89C3043F00103C0F89C30032380F879
:100A9000983001207047936943F00203936100236B
:100AA000C0F89430012280F8982018467047D0F89A
:100AB0009C3043F00803C0F89C300120704738B5E3
:100AC000044690F89830DBB2022B2BD10368D3F8A0
:100AD000C00010F07C5F0CD0D3F8C40010F4001FED
:100AE0000FD0D4F89C3043F40073C4F89C3001203C
:100AF0001FE0D4F89C3043F02003C4F89C30012060
:100B000017E0D3F8C450C5F304452B462046FFF741
:100B100081FD22680123AB40C2F8D030C4F8943084
:100B2000002006E0D0F89C3043F00803C0F89C3069
:100B3000012038BD90F898C05FFA8CFCBCF1020F20
:100B400040F0E28070B540290CD041293DD0046DC1
:100B50008C426DD8D0F89C3043F02003C0F89C3014
:100B60000120C3E00468D4F8A05015F4FE0F0CD0A7
:100B7000D4F8A45015F07F0F0FD1D0F89C3043F477
:100B80008073C0F89C300120B0E0D0F89C3043F076
:100B90002003C0F89C300120A8E0D4F8A450C5F38D
:100BA000006615F0807F04D0D4F8A060F60F00D165
:100BB0000026D4F8A440C4F305242644456F446CB1
:100BC00006FB04F405EB840C39E00468D4F8B0505B
:100BD00015F4FE0F0CD0D4F8B45015F07F0F0FD1E0
:100BE000D0F89C3043F48073C0F89C3001207DE045
:100BF000D0F89C3043F02003C0F89C30012075E011
:100C0000D4F8B450C5F3006615F0807F04D0D4F852
:100C1000B060F60F00D10026D4F8B440C4F3052428
:100C20002644856FC46C06FB04F405EB840C06E0D7
:100C3000C56F446D01FB04F405EB840C0026DCF861
:100C4000004004F08044546074BBDCF80040C4F3FE
:100C50008A441460DCF8004004F000549460DCF82E
:100C6000004004F000441461BCF80440D461BCF8B6
:100C7000064004F00F04D460DCF8044004F480144F
:100C80005461DCF8044004F4001494619CF80740BB
:100C900004F07F041462DCF80440E40F54620CF1A9
:100CA000080E4FF0000C0BE0DCF8004024F060442C
:100CB0001460CFE71EF80C4003F80C400CF1010C57
:100CC000D468154D2C5D6445F4D840290AD04129DB
:100CD0000DD01F290FD80268012303FA01F1C2F8D1
:100CE000981002E00368C3F8A860002070BD036894
:100CF000C3F8B860F9E701F01F010268012303FAA5
:100D000001F1C2F89C10F0E7D0F89C3043F00803E2
:100D1000C0F89C30012070476887000803685B6C4E
:100D200003F007020A60C3F302224A6003F01802CC
:100D30008A60C3F34012CA60C3F380120A61C3F32E
:100D4000C0124A61C3F3C0228A61C3F30032CA6190
:100D5000C3F340320A62C3F380324A62C3F30643EC
:100D60008B6200207047000090F89830013BDBB2A6
:100D7000012B07D9D0F89C3043F00203C0F89C3017
:100D80000120704710B403689C6D0C4224D1DC6DC7
:100D900044F00104DC6511F4007F05D00468D4F848
:100DA000E0301343C4F8E03011F4806F05D00468DC
:100DB000D4F8E4301A43C4F8E4200068436D0C4AC8
:100DC0000A40134343650B4A536943EA91715161E9
:100DD00000205DF8044B70479C6D31EA040402D09A
:100DE0000324DC65D7E7DC6D44F00204DC65D2E760
:100DF000FFFFCF3F00A8004090F89830013BDBB2E6
:100E0000012B07D9D0F89C3043F00203C0F89C3086
:100E10000120704710B40468636D174A0A4023EA42
:100E200002036365154A536923EA9173536111F410
:100E3000007F03D003680022C3F8E02011F4806F24
:100E400003D003680022C3F8E42003689A6D596D4B
:100E500091430BD00368596D114203D1DA6D22F032
:100E60000202DA6500205DF8044B7047D96D21F06D
:100E70000101D965EEE700BFFFFFCF3F00A80040AA
:100E800070477047704770477047704770477047AA
:100E90007047704770477047704770477047000051
:100EA0002DE9F04F83B00446B04B1A695B699B078C
:100EB00003EA8273019303681A6D02F4704A5A6D53
:100EC0000AEA020A1A6D02F00F095A6D09EA0209CC
:100ED0001A6D02F0F0085A6D08EA02081E6D06F05D
:100EE00071565A6D16401F6D07F060775A6D1740A6
:100EF0005D6DD3F850B015F4807F02D01BF4807F75
:100F000064D115F4806F02D01BF4806F67D1019B10
:100F1000002B74D1BAF1000F7CD1B9F1000F40F071
:100F20008580B8F1000F40F08D8015F4006F03D07C
:100F30001BF4006F40F0928015F4007F03D01BF487
:100F4000007F40F0968015F4002F03D01BF4002F93
:100F500040F09F8015F4803F03D01BF4803F40F0A9
:100F6000A38015F4802F03D01BF4802F40F0A780BE
:100F700015F4003F0FD01BF4003F0CD023684FF452
:100F800000321A65794B00221A61D4F89C3043F084
:100F90008003C4F89C30002F40F09C804EB1236841
:100FA0001E65B20F714B1A61D4F89C301E43C4F811
:100FB0009C6022686E4B9A4200F09680D4F89C3078
:100FC000002B40F0F78003B0BDE8F08F4FF4807243
:100FD0001A65664B00221A61FFF75BFF91E72368F1
:100FE000D3F8DC10D3F8E4204FF4806018655F4B31
:100FF0000020186111402046FFF747FF87E723686C
:1010000000221A6501998A0F584B1A612046FFF792
:1010100037FF7FE72368C3F850A04FEA9A72534B1B
:101020001A6151462046FFF72CFF76E72368C3F884
:1010300050904FEA99724D4B1A614946204605F08F
:10104000D5FF6EE72368C3F850804FEA9872474B8C
:101050001A6141462046FFF715FF66E723684FF403
:1010600000621A65414B00221A612046FFF70BFF10
:1010700062E72368D3F8D810D3F8E0204FF400706B
:1010800018653A4B0020186111402046FFF7FCFE1E
:1010900059E723684FF400221A65344B00221A6185
:1010A0002046FFF7F3FE55E723684FF480321A65B8
:1010B0002E4B00221A612046FFF7E9FE51E7236814
:1010C0004FF480221A65294B00221A612046FFF74F
:1010D000DFFE4DE723681F65BA0F244B1A613946BE
:1010E000204605F0D5FF59E763689A6812F0030FB0
:1010F0003FF464AF196A01F00F015A6A186A00F0F0
:101100003008586A08EA00081F6A07F4C077586A6E
:1011100007401E6A06F4FC46586A06401D6A05F43C
:10112000F025586A0540D3F82490D3F820A0114048
:1011300020D1B8F1000F22D119F0400F02D01AF0DF
:10114000400F24D17FBB36B163681E62D4F89C3057
:101150001E43C4F89C60002D3FF430AF63681D62ED
:10116000D4F89C301D43C4F89C5027E700A80040E9
:1011700000A0004019622046FFF78DFED9E76368A2
:10118000C3F8208041462046FFF786FED4E7636817
:10119000D96BDA6B4020186202F03F02090C20463E
:1011A000FFF77BFECEE763681F6239462046FFF7F4
:1011B00075FEC8E72046FFF76DFE04E7F0B583B083
:1011C00000236BE085685E000324B44025EA040533
:1011D000CC68B4402C438460446824EA0C0C4C680E
:1011E000C4F300149C4044EA0C04446068E0DD0849
:1011F000083550F8256003F007044FEA840C0F24EB
:1012000004FA0CF426EA040E0C6904FA0CF444EA1D
:101210000E0440F825406BE0092400E0002404FAA5
:101220000EF42C430CF1020C694D45F82C404FF0A4
:10123000B0442568D44325EA02064F6817F4801F9E
:1012400001D042EA05064FF0B0452E606D6804EA11
:1012500005064F6817F4001F01D042EA05064FF05B
:10126000B0456E60D5F8845004EA05064F6817F45F
:10127000003F01D042EA05064FF0B045C5F8846052
:10128000D5F880502C404E6816F4803F01D042EAD9
:1012900005044FF0B042C2F8804001330A6832FAC8
:1012A00003F400F092804FF0010C0CFA03FC1CEAEE
:1012B0000202F2D04C6804F00304013C012C81D9F5
:1012C0004C6804F00304032C0CD0C4685D004FF09C
:1012D000030C0CFA05FC24EA0C0C8C68AC4044EAC4
:1012E0000C04C4604C6804F00304022C3FF47FAF8C
:1012F00004684FEA430E4FF0030C0CFA0EFC24EA8C
:101300000C0C4C6804F0030404FA0EF444EA0C04D8
:1013100004604C6814F4403FBFD02E4CD4F8F45015
:1013200045F00205C4F8F450D4F8F44004F0020487
:101330000194019C4FEA930C0CF10205244C54F8E3
:10134000255003F003044FEA840E0F2404FA0EF430
:1013500025EA0405204CA0423FF460AF04F5806408
:10136000A04222D004F58064A04220D004F580641D
:10137000A0421ED004F58064A0421CD004F5806415
:10138000A0421AD004F58064A04218D004F580640D
:10139000A04216D004F58064A04214D004F5806405
:1013A000A0423FF439AF0A2439E7012437E7022489
:1013B00035E7032433E7042431E705242FE7062427
:1013C0002DE707242BE7082429E703B0F0BD00BF71
:1013D00000040058004402580000025803691942F2
:1013E00001D001207047002070470AB18161704729
:1013F000090481617047436901EA030221EA03019C
:1014000041EA0241816170472DE9F04383B0D0F891
:10141000008001EBC10300EB83039A6A5B6A9A4286
:1014200054D807460C469B1A01EBC10200EB82021E
:10143000D2699A4200D31A4602F103094FEA990988
:1014400015E006F103094FEA9909BB7904EBC405DD
:1014500007EB8505296A0093B3B2E2B2404603F078
:1014600030F92B6A33442B62AB6A3344AB6208EB2E
:10147000441303F510639B699BB24B4512D304EBF5
:10148000C40207EB8202916A536A99420AD24BB1B5
:101490005B1A04EBC40207EB8202D6699E42D0D3EA
:1014A0001E46CEE704EBC40007EB80077A6ABB6AEE
:1014B0009A420FD804F00F040123A340D8F834480F
:1014C00024EA0304C8F83448002000E0012003B0F7
:1014D000BDE8F0830020FAE730B583B000287AD069
:1014E000044690F89534ABB1032384F89534206812
:1014F00002F09EFE237C8DF80030231D0ECB206869
:1015000002F0CCFD58B1022384F895340125284619
:1015100003B030BD80F8943406F0C8FEE4E7002143
:10152000206803F0E9FA024608B9034617E00223EF
:1015300084F895340125EAE703EBC30104EB81014C
:10154000012048750B75CB8500200876C8610862BC
:1015500003EBC30104EB810148620133DBB2207964
:101560009842E9D816E002EBC20304EB83030021A2
:1015700083F8551283F8542283F85812C3F85C128A
:10158000C3F8601202EBC20304EB8303C3F86412D6
:101590000132D2B29042E6D8237C8DF80030231D70
:1015A0000ECB206802F09AFE054658B900236374FA
:1015B000012384F89534237B012B08D0206803F0A5
:1015C00058FAA4E7022384F8953401259FE72046C2
:1015D00000F072FDF2E7012599E7036890F8942482
:1015E000012A1AD010B50446012280F89424DA6842
:1015F00012F0400F02D0427B012A09D0206802F08D
:1016000011FE206803F027FA002084F8940410BD2E
:101610009A6B42F480329A63F0E702207047000030
:1016200070B504460D460068066C00EB411303F5E7
:1016300030639A68A179012911D038498E4256D079
:101640003DB905EBC50304EB8303D3F86432002BEB
:101650005ED0E9B2204605F0C5FF002070BD12F053
:10166000080F09D02E498E42F7D912F4004FF4D05A
:101670004FF400429A60F0E712F0200F02D02022CF
:101680009A60EAE712F0280FE7D125498E4206D981
:1016900012F4004F03D04FF400429A60DDE705EBEF
:1016A000C50204EB8202D2F874121B69C3F3120361
:1016B000CB1AC2F868327DB905EBC50204EB820291
:1016C000D2F864226AB105EBC50204EB8202D2F8BB
:1016D00060120B44C2F86032E9B2204605F082FF86
:1016E000BBE704F29C42012103F048FAF4E712F44C
:1016F000004F03D04FF400429A60AEE712F0200F83
:1017000001D020229A60E9B2204605F06BFFA4E7E1
:1017100004F29C42002103F031FA9AE70A31544F57
:101720000A30544F38B5044603681D6C03EB41136F
:10173000D3F8081B0E4A954207D903F5306311F41C
:10174000004F02D04FF400429A60204605F020FF7F
:10175000074B9D4202D9A379012B01D0002038BD4F
:1017600004F29C420121206803F008FAF6E700BF6A
:101770000A30544F90F89434012B0CD010B5044625
:10178000012380F894344174006803F054F9002078
:1017900084F8940410BD0220704738B505468C4685
:1017A00011F0800F29D101F00F0E0EEBCE04A40032
:1017B00004F514740444211D0EEBCE0E00EB8E0EC6
:1017C00000208EF855020CF00F0C81F800C08A60E2
:1017D0000B714A780AB1A1F81AC0022B1CD095F8F7
:1017E0009434012B1BD0012385F89434286802F02F
:1017F0004BFE002085F8940438BD01F00F0000EB8B
:10180000C001890010312944043100EBC00005EB10
:10181000800001244475D6E700234B71DFE70220E6
:10182000EAE710B504460A4611F0800F20D101F016
:101830000F0000EBC0039B0003F514732344191D34
:1018400000EBC00004EB8000002380F8553202F06A
:101850000F020A7094F89434012B18D0012384F8F5
:101860009434206802F05EFE002084F8940410BDD9
:1018700001F00F0000EBC0039B0010332344191D3F
:1018800000EBC00004EB800001234375DFE702207A
:10189000EDE710B5144601F00F0C0CEBCC018900FC
:1018A00001F51471014404310CEBCC0E00EB8E0EEB
:1018B000CEF86022CEF864320023CEF868328EF87B
:1018C00055328EF854C28279012A04D0006802F0A1
:1018D0000FFF002010BDCEF87042F7E701F00F01B6
:1018E00001EBC10100EB8101D1F86802704710B52E
:1018F000144601F00F0C0CEBCC01890010310144AF
:1019000004310CEBCC0E00EB8E0ECEF82020CEF87E
:1019100024300023CEF8283001238EF815308EF8BD
:1019200014C082799A4204D0006802F0E1FE0020DF
:1019300010BDCEF83040F7E738B501F00F05027959
:10194000AA4238D304460B4611F0800F1FD101EB99
:10195000C101890001F514710144043103EBC30393
:1019600000EB8303002283F8552201238B700D7056
:1019700094F89434012B20D0012384F89434206807
:1019800002F0FEFF85B1002084F8940438BD05EB19
:10199000C501890010310144043105EBC50300EB9A
:1019A000830301225A75E0E704F29C42A179206882
:1019B00003F0E4F8E7E70120E8E70220E6E701F0BA
:1019C0000F0302799A4230D310B5044611F0800F0C
:1019D0001ED103EBC301890001F5147101440431E8
:1019E00003EBC30200EB8202002082F855020022C2
:1019F0008A700B7094F89434012B18D0012384F86A
:101A00009434206802F0E9FF002084F8940410BDAB
:101A100003EBC301890010310144043103EBC3021D
:101A200000EB820201205075E1E70120704702209F
:101A3000EDE708B511F0800F0CD101F00F0101EBBB
:101A4000C101890001F5147101440431006802F0FC
:101A5000D9FD08BD01F00F0101EBC1018900103172
:101A600001440431F2E72DE9F04F83B004460568E4
:101A7000284603F03DF810B103B0BDE8F08F0646EC
:101A8000206803F004F80028F6D005F50067BB686D
:101A9000C3F30D23C4F8D434206802F0F8FF10F02B
:101AA000020F04D02268536903F0020353612068D7
:101AB00002F0EDFF10F0100F14D02268936923F0AC
:101AC00010039361D5F8208008F00F09C8F3434351
:101AD000022B69D0062B00F08D802268936943F0B9
:101AE00010039361206802F0D2FF10F4002F40F041
:101AF0009380206802F0CBFF10F4802F40F0FC8030
:101B0000206802F0C4FF0028C0F27D81206802F046
:101B1000BEFF10F4006F09D0BB6813F0010F40F056
:101B20008A812268536903F400635361206802F0DC
:101B3000AEFF10F0006F15D02268536903F0006308
:101B4000536194F8CC34002B40F07981012184F862
:101B5000CC1423685B6DC3F38303C4F8D0342046F0
:101B600000F0BEFA206802F092FF10F4805F40F0AF
:101B70006A81206802F08BFF10F4005F40F0B681AC
:101B8000206802F084FF10F0080F40F0C781206841
:101B900002F07DFF10F0800F00F0DA81AB6923F0D6
:101BA0008003AB610126C3E147F6F07318EA030F27
:101BB00093D04FEA181B4FEAC903019309EBC90AF6
:101BC00004EB8A0AC8F30A12DAF86012284602F017
:101BD000ADFECBF30A0BDAF860325B44CAF8603230
:101BE000019B4B4404EB8303D3F868325B44CAF88F
:101BF000683272E7082204F29C41284602F096FE01
:101C0000C8F30A1809EBC90204EB8202D2F8683261
:101C10004344C2F8683260E7206802F03CFF804627
:101C2000B14635E005EB49130122C3F8082B4946BC
:101C30002046FFF7F5FC3CE005EB49130822C3F80A
:101C4000082B49462046FFF76DFD35E009EBC90337
:101C500004EB830393F85732012B41D005EB491372
:101C60000222C3F8082B1AF0200F04D005EB491309
:101C70002022C3F8082B1AF4005F05D005EB4913A6
:101C80004FF40052C3F8082B09F101094FEA580834
:101C9000B8F1000F3FF42DAF18F0010FF4D05FFA48
:101CA00089FB5946206802F006FF824610F0010FBA
:101CB000B8D11AF0080FBFD11AF0100F04D005EBFD
:101CC00049131022C3F8082B1AF0020FCBD06B690E
:101CD00013F0800FBAD07B6843F480637B60B5E774
:101CE00009EBC90304EB8303002283F8572259460A
:101CF000204605F0CBFCB1E7206802F0D4FE804618
:101D0000B14625E05946204605F078FC1AF0080F48
:101D100004D005EB49130822C3F808291AF0100F64
:101D200004D005EB49131022C3F808291AF0400F1C
:101D300004D005EB49134022C3F808291AF0020F1A
:101D400040D11AF0800F59D109F101094FEA580822
:101D5000B8F1000F3FF4D4AE18F0010FF4D05FFAE1
:101D600089FB5946206802F0AFFE824610F0010F51
:101D7000CCD009F00F03012101FA03F27B6B23EAB7
:101D800002037B6305EB4913C3F80819A3798B425F
:101D9000B8D109EBC90304EB8303D9691A6A0A4471
:101DA0001A62B9F1000FADD109EBC90304EB83034B
:101DB0005B6A002BA6D104F29C420121206802F04C
:101DC000DDFE9FE74946284602F038FA09EBC903D1
:101DD00004EB8303DB7D012B05D005EB49130222C5
:101DE000C3F80829ADE709EBC90304EB830300221C
:101DF000DA755946204605F04FFCEEE74946204685
:101E0000FFF702FBA0E77B6823F001037B6094F8F7
:101E1000CC34012B08D0204605F024FC22685369FD
:101E200003F00043536171E6002184F8CC1420468E
:101E300000F056F9F2E7204605F004FC71E6204672
:101E400005F000FC8EE67B6823F001037B60102127
:101E5000206802F0F3F91AE005EB46134FF67F31E4
:101E6000C3F80819D3F8002922F40012C3F8002996
:101E7000C3F8081BD3F8002B22F40012C3F8002B80
:101E8000D3F8002B42F00062C3F8002B013623790F
:101E9000B342E1D8FB6943F00113FB61E37BDBB1A3
:101EA000D7F8843043F00B03C7F884307B6C43F0E1
:101EB0000B037B64D5F8003823F4FE63C5F80038C3
:101EC00004F29C42A179206802F058FE226853690E
:101ED00003F4805353614CE67A6942F22B031343B7
:101EE0007B613B6943F00B033B61E3E7206802F051
:101EF00035FE206802F0B8FAE071266800F0C2FEF4
:101F00000146E279304602F01BF9204605F087FBD6
:101F10002268536903F40053536131E6204605F00B
:101F200078FB2268536903F0080353612FE60136FA
:101F30002379B3420CD906EBC60304EB830393F871
:101F40005732012BF3D1F1B22046FFF772FDEEE7D5
:101F5000206802F09CFD10F4801F25D1206802F05B
:101F600096FD10F4001F59D0012326E00136237995
:101F7000B3421BD905EB4613D3F8002906EBC60381
:101F800004EB83031B7E012BF0D1002AEEDA06EB73
:101F9000C60304EB83030122DA7566F07F01C9B240
:101FA0002046FFF746FDE1E70126E0E72268536996
:101FB00003F480135361D1E7013322799A4228D97F
:101FC00005EB4312D2F8001B03EBC30204EB8202C1
:101FD00092F85822012AEFD10029EDDA01F480317C
:101FE000D4F8D42402F001029142E5D103EBC302FC
:101FF00004EB8202012182F85712AA6942F08002A2
:10200000AA616A6912F0800FD6D17B6843F400732D
:102010007B602268536903F400135361206802F067
:1020200036FD10F0804F10D1206802F030FD10F026
:10203000040F3FF421AD23685D6815F0040F0DD146
:10204000226853682B43536016E5204605F02AFBAF
:102050002268536903F080435361E5E7204605F0A9
:1020600027FBEDE710B40468606A31B940EA02402A
:10207000A06200205DF8044B70478C46A36A00EB19
:102080001340002308E003F1400104EB810149689B
:1020900000EB11400133DBB20CF1FF318B42F2D384
:1020A00040EA02400CF13F0104EB81014860E0E7A7
:1020B0000368596200207047034602680121C0F896
:1020C000D814002083F8CC04936943F00063936133
:1020D000516D024B0B435365704700BF0300001066
:1020E00070470000134BDB6813F0040F07D1114B4E
:1020F000DB6803F0070383421AD00120704710B554
:102100000C4AD36823F007031843D060FEF722F986
:102110000446084B5B6813F4005F07D1FEF71AF919
:10212000001BB0F57A7FF4D9012000E0002010BD3B
:102130000020704700480258024AD36843F0807379
:10214000D360704700480258002800F0398338B542
:102150000446036813F0010F25D0944A136903F075
:102160003803926A102B15D0182B0FD06368B3F583
:10217000803F3FD0002B53D18C4B1A6822F4803221
:102180001A601A6822F480221A6038E002F0030212
:10219000022AEBD1854B1B6813F4003F03D0636820
:1021A000002B00F00F83236813F0020F00F0A180D2
:1021B0007E4A1369926A13F038035AD0182B55D00F
:1021C000E368002B00F0DE8078490A6822F01902EB
:1021D00013430B60FEF7BEF80546744B1B6813F003
:1021E000040F40F0AD80FEF7B5F8401B0228F4D98B
:1021F0000320EEE26D4A136843F480331360636892
:102200002BB3FEF7A7F80546684B1B6813F4003F95
:10221000C9D1FEF79FF8401B6428F5D90320D8E206
:10222000B3F5A02F09D0614B1A6822F480321A60EE
:102230001A6822F480221A60E1E75C4B1A6842F4C3
:1022400080221A601A6842F480321A60D7E7FEF7DB
:1022500081F80546554B1B6813F4003FA3D0FEF7E9
:1022600079F8401B6428F5D90320B2E212F0030F7D
:10227000A6D14E4B1B6813F0040F03D0E368002B6C
:1022800000F0A282494A136823F01903E1680B4366
:102290001360FEF75FF80546444B1B6813F0040F0C
:1022A00006D1FEF757F8401B0228F5D9032090E22B
:1022B000FEF76AF841F20303984212D82269402AD5
:1022C00007D03A494B6823F47C3343EA02334B602E
:1022D0000FE0364A536823F47C3343F400335360F1
:1022E00007E0324A536823F0FE43216943EA016361
:1022F0005360236813F0100F00F088802B4A136995
:1023000003F03803926A082B56D0182B50D0E3699B
:10231000002B00F0B880254A136843F08003136057
:10232000FEF718F80546214B1B6813F4807F40F038
:102330008880FEF70FF8401B0228F4D9032048E2FA
:10234000FEF722F841F20303984212D82269402A8C
:1023500007D016494B6823F47C3343EA02334B60C1
:10236000C7E7124A536823F47C3343F400335360C5
:10237000BFE70E4A536823F0FE43216943EA016335
:102380005360B6E7094A136823F001031360FDF7B1
:10239000E1FF0546054B1B6813F0040FA9D0FDF7BC
:1023A000D9FF401B0228F5D9032012E2004402584D
:1023B00002F00302012AAAD1A14B1B6813F4807F0B
:1023C00003D0E369802B40F00182FDF7DDFF41F28D
:1023D0000303984212D8226A202A07D098494B68F2
:1023E00023F0F84343EA82634B600FE0944A53685A
:1023F00023F0F84343F08043536007E0904AD368EA
:1024000023F07C53216A43EA0163D360236813F00D
:10241000080F60D06369002B49D0894A536F43F09D
:1024200001035367FDF796FF0546854B5B6F13F07D
:10243000020F50D1FDF78EFF401B0228F5D9032073
:10244000C7E1FDF7A1FF41F20303984212D8226AC7
:10245000202A07D07A494B6823F0F84343EA826385
:102460004B60D3E7764A536823F0F84343F0804348
:102470005360CBE7724AD36823F07C53216A43EA66
:102480000163D360C2E76E4A136823F080031360D0
:10249000FDF760FF05466A4B1B6813F4807FB5D0DB
:1024A000FDF758FF401B0228F5D9032091E1644A4B
:1024B000536F23F001035367FDF74CFF0546604B54
:1024C0005B6F13F0020F06D0FDF744FF401B02289C
:1024D000F5D903207DE1236813F0200F29D0A369EB
:1024E0009BB1574A136843F480531360FDF732FFE2
:1024F0000546534B1B6813F4005F1AD1FDF72AFF02
:10250000401B0228F5D9032063E14D4A136823F4E8
:1025100080531360FDF71EFF0546494B1B6813F4FB
:10252000005F06D0FDF716FF401B0228F5D90320F7
:102530004FE1236813F0040F21D1636A002B00F0F0
:1025400047813F4A126902F03802182A00F0EE80F3
:10255000022B79D03A4A136823F080731360FDF799
:10256000F9FE0446364B1B6813F0007F00F0DC8058
:10257000FDF7F0FE001B0228F4D9032029E1314ABF
:10258000136843F480731360FDF7E4FE05462D4B9A
:102590001B6813F4807F06D1FDF7DCFE401B642826
:1025A000F5D9032015E1A368012B0AD00BBB244BFE
:1025B0001A6F22F001021A671A6F22F004021A67DA
:1025C00004E01F4A136F43F001031367A36833B39A
:1025D000FDF7C0FE05461A4B1B6F13F0020FACD17E
:1025E000FDF7B8FE401B41F288339842F3D903202F
:1025F000EFE0052B09D0124B1A6F22F001021A6787
:102600001A6F22F004021A67E0E70D4B1A6F42F0CE
:1026100004021A671A6F42F001021A67D6E7FDF743
:1026200099FE0546064B1B6F13F0020F85D0FDF790
:1026300091FE401B41F288339842F3D90320C8E051
:102640000044025800480258694A136823F0807316
:102650001360FDF77FFE0546654B1B6813F0007F96
:1026600006D0FDF777FE401B0228F5D90320B0E025
:102670005F4B996A5F4A0A40A16AE06A41EA001129
:102680000A439A62226B013AC2F30802616B013974
:10269000490289B20A43A16B0139090401F4FE0120
:1026A0000A43E16B0139090601F0FE410A431A634E
:1026B000DA6A22F00102DA62596B4F4A0A40A16CD1
:1026C00042EAC1025A63DA6A22F00C02216C0A4320
:1026D000DA62DA6A22F00202616C0A43DA62DA6ACA
:1026E00042F48032DA62DA6A42F40032DA62DA6A9A
:1026F00042F48022DA62DA6A42F00102DA621A688F
:1027000042F080721A60FDF725FE0446384B1B68C4
:1027100013F0007F06D1FDF71DFE001B0228F5D93E
:10272000032056E0002054E0002052E0304A916A35
:10273000106B012B4ED001F00303A26A93424BD1E0
:10274000C1F30511E36A994248D1C0F30802236B33
:10275000013B9A4244D1C0F34622636B013B9A424B
:1027600040D1C0F30642A36B013B9A423CD1C0F377
:102770000660E36B013B984238D11D4B5B6BC3F3A2
:10278000CC03A26C9A4201D1002022E0184AD36AFD
:1027900023F00103D362FDF7DDFD0546FDF7DAFD09
:1027A000A842FBD0124A516B134B0B40A16C43EA79
:1027B000C1035363D36A43F00103D362002008E0EE
:1027C00001207047012004E0012002E0012000E028
:1027D000002038BD0120FCE70120FAE70120F8E7DE
:1027E0000120F6E70120F4E70120F2E70120F0E7FD
:1027F000004402580CFCFFFF0700FFFF744B1B69ED
:1028000003F03803102B00F0DE80182B10D00BB132
:10281000704870476E4B1B6813F0200F00F0D58096
:102820006B4B1868C0F3C1006B4B23FA00F0704784
:1028300010B4674A916A01F00301946AC4F3051069
:10284000D36A03F0010C536BC3F3CC030CFB03F30B
:1028500007EE903AF8EE677A14F47C7F00F09380EC
:10286000012965D0022900F09180E1B107EE100A3C
:10287000F8EE476A9FED596A86EE267A544B1B6B39
:10288000C3F3080306EE903AF8EE666A9FED546AC9
:1028900067EE867A76EEA77AF7EE006A77EEA67A8A
:1028A00027EE277A60E0136813F0200F23D011463B
:1028B0001268C2F3C102484BD34007EE103AF8EE5B
:1028C000476A07EE100AB8EE476A86EE867A0B6B07
:1028D000C3F3080306EE903AF8EE666A9FED406A8D
:1028E00067EE867A76EEA77AF7EE006A77EEA67A3A
:1028F00027EE277A38E007EE100AF8EE476A9FEDD8
:10290000396A86EE267A324B1B6BC3F3080306EE58
:10291000903AF8EE666A9FED326A67EE867A76EE56
:10292000A77AF7EE006A77EEA67A27EE277A1BE001
:1029300007EE100AF8EE476A9FED286A86EE267ABF
:10294000234B1B6BC3F3080306EE903AF8EE666A5E
:102950009FED236A67EE867A76EEA77AF7EE006A35
:1029600077EEA67A27EE277A194B1B6BC3F3462323
:10297000013307EE903AF8EE677AC7EE276AFCEE6D
:10298000E67A17EE900A5DF8044B704707EE100ADE
:10299000F8EE476A9FED146A86EE267A0C4B1B6BA5
:1029A000C3F3080306EE903AF8EE666A9FED0C6AF0
:1029B00067EE867A76EEA77AF7EE006A77EEA67A69
:1029C00027EE277AD0E7094870470348704700BFD1
:1029D0000044025800093D000090D0030024744ACE
:1029E000000000390024744C20BCBE4B40787D01AF
:1029F000002800F0328170B50D4604469B4B1B68E1
:102A000003F00F038B420BD2984A136823F00F0395
:102A10000B431360136803F00F038B4240F01F81D8
:102A2000236813F0040F0CD02269914B9B6903F0CB
:102A300070039A4205D98E498B6923F070031A43BB
:102A40008A61236813F0080F0CD06269884BDB6938
:102A500003F070039A4205D98549CB6923F07003CE
:102A60001A43CA61236813F0100F0CD0A269804B7F
:102A7000DB6903F4E0639A4205D97D49CB6923F40D
:102A8000E0631A43CA61236813F0200F0CD0E26997
:102A9000774B1B6A03F070039A4205D974490B6A9D
:102AA00023F070031A430A62236813F0020F0CD05C
:102AB000E2686F4B9B6903F00F039A4205D96C499A
:102AC0008B6923F00F031A438A61236813F0010F07
:102AD00041D0674A936923F47063A1680B43936103
:102AE0006368022B0AD0032B27D0012B2CD0604A1D
:102AF000126812F0040F06D10120ADE0126812F442
:102B0000003F00F0AE805A490A6922F007021343E1
:102B10000B61FDF71FFC0646554B1B6903F038039C
:102B20006268B3EBC20F16D0FDF714FC801B41F2B4
:102B300088339842F0D903208EE04D4A126812F093
:102B4000007FE0D1012087E0494A126812F4807FBB
:102B5000D9D1012080E0236813F0020F0CD0E26885
:102B6000434B9B6903F00F039A4205D240498B699E
:102B700023F00F031A438A613C4B1B6803F00F03D9
:102B8000AB420AD9394A136823F00F032B43136071
:102B9000136803F00F03AB4265D1236813F0040FF1
:102BA0000CD02269324B9B6903F070039A4205D224
:102BB0002F498B6923F070031A438A61236813F04D
:102BC000080F0CD062692A4BDB6903F070039A424C
:102BD00005D22749CB6923F070031A43CA612368E1
:102BE00013F0100F0CD0A269214BDB6903F4E063F2
:102BF0009A4205D21E49CB6923F4E0631A43CA61A5
:102C0000236813F0200F0CD0E269194B1B6A03F004
:102C100070039A4205D216490B6A23F070031A43D7
:102C20000A62FFF7EBFD12498B69C3F30323114AD4
:102C3000D35C03F01F03D8408B6903F00F03D35C10
:102C400003F01F0320FA03F30B4A13600B4B1860C9
:102C50000B4B186805F084FB70BD01207047012004
:102C6000FAE70120F8E70120F6E700BF0020005254
:102C700000440258808800086C0000206800002092
:102C80000400002008B5FFF7B9FD0B4A9369C3F3B0
:102C900003230A49CB5C03F01F0320FA03F3926974
:102CA00002F00F02885C00F01F0023FA00F0044AD3
:102CB0001060044A136008BD004402588088000870
:102CC0006C0000206800002008B5FFF7DBFF054B13
:102CD000DB69C3F30223044AD35C03F01F03D8402B
:102CE00008BD00BF00440258808800083F230360ED
:102CF000114B1A6902F0070242609A6902F470628D
:102D000082609A6902F00F02C2609A6902F0700252
:102D10000261DA6902F070024261DA6902F4E0628B
:102D200082611B6A03F07003C361044B1B6803F0EC
:102D30000F030B60704700BF004402580020005290
:102D4000404B9B6A03F00303032B79D070B5054613
:102D50000E463C4A136823F080631360FDF7FAFACD
:102D60000446384B1B6813F0006F06D0FDF7F2FAEB
:102D7000031B022BF5D9032070BD324B9A6A22F453
:102D80007C32296842EA01329A626A68013AC2F3E7
:102D90000802A9680139490289B20A43E968013980
:102DA000090401F4FE010A4329690139090601F009
:102DB000FE410A439A63DA6A22F0C00269690A4353
:102DC000DA62DA6A22F02002A9690A43DA62DA6A70
:102DD00022F01002DA62D96B1B4A0A40E96942EA22
:102DE000C102DA63DA6A42F01002DA62C6B91A4640
:102DF000DB6A43F40023D362124A136843F0806312
:102E00001360FDF7A7FA04460E4B1B6813F0006F22
:102E100014D1FDF79FFA001B0228F5D90320ABE778
:102E2000012E05D0074AD36A43F40013D362E3E7C7
:102E3000044AD36A43F48013D362DDE700209BE7A2
:102E400001207047004402580700FFFF404B9B6A77
:102E500003F00303032B79D070B505460E463C4AB8
:102E6000136823F080531360FDF774FA0446384B5F
:102E70001B6813F0005F06D0FDF76CFA031B022BF2
:102E8000F5D9032070BD324B9A6A22F07C72296812
:102E900042EA01529A626A68013AC2F30802A968DA
:102EA0000139490289B20A43E9680139090401F488
:102EB000FE010A4329690139090601F0FE410A436E
:102EC0001A64DA6A22F4406269690A43DA62DA6AE9
:102ED00022F40072A9690A43DA62DA6A22F4807283
:102EE000DA62596C1B4A0A40E96942EAC1025A6433
:102EF000DA6A42F48072DA62C6B91A46DB6A43F4CF
:102F00008003D362124A136843F080531360FDF7C5
:102F100021FA04460E4B1B6813F0005F14D1FDF735
:102F200019FA001B0228F5D90320ABE7012E05D0C2
:102F3000074AD36A43F08073D362E3E7044AD36A53
:102F400043F40003D362DDE700209BE701207047D4
:102F5000004402580700FFFFF8B50446036813F069
:102F6000006F30D0836EB3F5001F26D00ED8EBB1C2
:102F7000B3F5801F07D102210830FFF7E1FE0546B7
:102F800045B12E4621E0012635461EE0B3F5401F2F
:102F900009D10025984A136D23F44013A16E0B4309
:102FA0001365002611E0012635460EE0924AD36AE9
:102FB00043F40033D3620025ECE702212830FFF709
:102FC00045FF0546DCE700263546236813F4807F7D
:102FD00014D0A36D042B32D8DFE803F003232A08B2
:102FE0000800854AD36A43F40033D36255BB824A52
:102FF000136D23F00703A16D0B431365236813F4CE
:10300000007F31D0E36D802B4CD020D8002B43D0F3
:10301000402B19D1002104F10800FFF791FE05466D
:103020001AE0002104F10800FFF78AFE0546DDE7FB
:10303000002104F12800FFF709FF0546D6E7012625
:103040003546DBE72E46D9E7012635460CE0C02B96
:1030500002D0B3F5807F1CD15DBB674A136D23F4AA
:10306000E073E16D0B431365236813F4806F46D062
:10307000D4F8A830B3F5800F39D01FD88BB3B3F58F
:10308000001F18D1002104F10800FFF759FE054682
:103090001AE001263546E7E7574AD36A43F400337E
:1030A000D362D9E7002104F12800FFF7CFFE0546DF
:1030B000D2E72E46D8E70126354620E0B3F5C00F0B
:1030C00002D0B3F5000F09D1C5B94B4A936D23F473
:1030D0006003D4F8A8100B43936510E00126354631
:1030E0000DE0454AD36A43F40033D362ECE7002194
:1030F00004F12800FFF7AAFE0546E5E72E462368FF
:1031000013F4006F24D0D4F8AC30B3F1007F42D078
:103110000ED8002B39D0B3F1807F06D1002104F105
:103120000800FFF70DFE054608E0012635460FE0D2
:10313000B3F1407F02D0B3F1806F23D1002D31D1A4
:103140002D4A936D23F0E063D4F8AC100B439365E4
:10315000236813F0007F2ED0E36C202B40D026D8BC
:1031600033B1102B20D1244AD36A43F40033D36205
:10317000002D3CD1204AD36C23F03003E16C0B438B
:10318000D36418E001263546E2E71B4AD36A43F4CC
:103190000033D362D2E7002104F12800FFF756FE86
:1031A0000546CBE72E46D3E70126354603E0302B14
:1031B000DED001263546236813F4805F2DD0236EC0
:1031C000B3F5005F4FD019D8002B46D0B3F5805F20
:1031D0000FD1002104F10800FFF7B2FD054613E00E
:1031E000022104F10800FFF7ABFD0546C0E72E46BB
:1031F000E1E70126354610E000440258B3F5405F90
:1032000002D0B3F5804F25D1002D33D1774A136D0D
:1032100023F4E043216E0B431365236813F4005F2E
:1032200038D0636EB3F5003F53D028D843B1B3F51F
:10323000803F21D1012104F10800FFF781FD0546FF
:10324000002D4DD1694A136D23F4E023616E0B43C9
:1032500013651FE001263546DFE7644AD36A43F46D
:103260000033D362D0E7002104F12800FFF7EEFD20
:103270000546C9E72E46D0E7012635460AE0B3F5F4
:10328000802FDDD0B3F5A02FDAD0B3F5403FD7D0F3
:1032900001263546236813F4804F31D0D4F8B0307E
:1032A000B3F1005F45D020D843B1B3F1805F19D1AD
:1032B000012104F10800FFF743FD0546002D3FD131
:1032C0004A4A936D23F0E043D4F8B0100B43936562
:1032D00016E0012104F12800FFF7B8FD0546AFE72D
:1032E0002E46D7E7012635460AE0B3F1804FE5D0F8
:1032F000B3F1A04FE2D0B3F1405FDFD001263546F5
:10330000236813F4004F09D0236FB3F1805F19D005
:10331000B3F1005F24D0D3B101263546236813F002
:10332000807F33D0A36C032B5BD8DFE803F0272228
:103330005327012104F12800FFF788FD0546BDE76A
:103340002E46DDE7294AD36A43F40033D36275B9C8
:10335000264A136D23F04053216F0B431365DDE7BD
:10336000012104F10800FFF7EBFC0546EFE72E46CC
:10337000D4E71E4AD36A43F40033D362A5BB1B4A89
:10338000D36C23F00303A16C0B43D364236813F4C1
:10339000800F2DD1236813F0010F00F0A580E36F9B
:1033A000282B00F29F80DFE803F08D9D9D9D9D9D61
:1033B0009D9D879D9D9D9D9D9D9D969D9D9D9D9D5A
:1033C0009D9D8D9D9D9D9D9D9D9D8D9D9D9D9D9D4D
:1033D0009D9D8D00022104F10800FFF7B1FC054618
:1033E000CCE701263546D1E72E46CFE70044025808
:1033F000914A136843F480731360FCF7ABFF0746F0
:103400008D4B1B6813F4807F05D1FCF7A3FFC01B15
:103410006428F5D90325002D4AD1884B1B6FD4F8B9
:10342000B420534013F4407F0CD0844B1A6F22F425
:103430004072196F41F480311967196F21F480319E
:1034400019671A67D4F8B430B3F5807F15D08DBBF7
:10345000D4F8B43003F44072B2F5407F1ED0774AFE
:10346000136923F47C53136174490B6FD4F8B420AF
:10347000C2F30B0213430B678CE7FCF76BFF0746A5
:103480006E4B1B6F13F0020FE1D1FCF763FFC01B03
:1034900041F288339842F3D90325D8E76748026997
:1034A00022F47C52664901EA131313430361DBE7FC
:1034B0002E466FE72E466DE7012104F10800FFF765
:1034C0003FFC0546E5B95D4A536D23F03803E16FD3
:1034D0000B43536508E0012104F12800FFF7B6FC17
:1034E0000546EFE701263546236813F0020F17D093
:1034F000A36F052B28D8DFE803F00B05200B0B0B7F
:103500002E46F1E7012104F10800FFF719FC0546FA
:10351000EDB94A4A536D23F00703A16F0B4353657E
:10352000236813F0040F23D0D4F89430052B45D82A
:10353000DFE803F0150F3D151515012104F12800F2
:10354000FFF784FC0546E3E701263546E8E72E460B
:10355000E6E7012104F10800FFF7F2FB054685BB11
:10356000364A936D23F00703D4F894100B43936508
:10357000236813F0200F34D0D4F89030B3F1005FFB
:103580004ED023D843B1B3F1805F1CD1002104F1A8
:103590000800FFF7D5FB0546002D48D1274A536D9B
:1035A00023F0E043D4F890100B43536519E0012158
:1035B00004F12800FFF74AFC0546D0E7012635460E
:1035C000D6E72E46D4E7012635460AE0B3F1804F10
:1035D000E2D0B3F1A04FDFD0B3F1405FDCD00126E1
:1035E0003546236813F0400F37D0D4F89C30B3F53C
:1035F000006F53D026D843B1B3F5806F19D10021A5
:1036000004F10800FFF79CFB0546002D4DD10B4A45
:10361000936D23F4E053D4F89C100B4393651CE0A6
:10362000022104F12800FFF711FC0546B4E72E46FD
:10363000D7E70126354610E00048025800440258FA
:10364000CFFFFF00B3F5805FDFD0B3F5A05FDCD024
:10365000B3F5406FD9D001263546236813F0800FAB
:1036600033D0D4F8A030B3F5804F00F0A38021D838
:1036700043B1B3F5005F1AD1002104F10800FFF750
:103680005FFB0546002D40F09C80814A936D23F43A
:103690006043D4F8A0100B43936516E0022104F1B7
:1036A0002800FFF7D3FB0546AFE72E46D5E70126F6
:1036B00035460AE0B3F5004FE4D0B3F5204FE1D032
:1036C000B3F5C04FDED001263546236813F0080F4E
:1036D0000CD0D4F88430B3F5805F74D06C4A536D4D
:1036E00023F44053D4F884100B435365236813F03C
:1036F000100F0CD0D4F89830B3F5807F6CD0644AAA
:10370000936D23F44073D4F898100B4393652368AA
:1037100013F4002F0BD0D4F8A430B3F5803F74D04D
:10372000B3F5003F67D0002B5FD0012635462368F4
:1037300013F4802F0CD0D4F88830B3F5001F7CD060
:10374000B3F5401F6FD0B3F5801F67D00126354613
:10375000236813F4803F08D0236D002B76D0B3F597
:10376000803F00F0818001263546236813F0005F1A
:1037700040F08380236813F4003F00F08E80D4F87B
:103780008030B3F5807F00F0EC8040F28380B3F5A9
:10379000007F03D0B3F5407F40F0E180002D40F082
:1037A000E6803B4A536D23F44073D4F880100B43FA
:1037B000536572E0022104F12800FFF747FB05463C
:1037C00060E72E4681E7022104F12800FFF73EFB67
:1037D000002883D0012681E7022104F12800FFF7A9
:1037E00035FB00288BD0012689E7002104F1080071
:1037F000FFF7A6FA05467DB9254A936D23F44033B9
:10380000D4F8A4100B43936591E7022104F128003A
:10381000FFF71CFB0546EEE72E4688E71C4AD36AF5
:1038200043F40033D3627DB9194A536D23F4401336
:10383000D4F888100B4353658AE7012104F128006E
:10384000FFF704FB0546EEE72E4681E7104AD36AF0
:1038500043F40033D36275B90D4AD36C23F480333B
:10386000216D0B43D36480E7022104F10800FFF7C8
:1038700067FA0546EFE72E4677E7022104F12800B4
:10388000FFF7E4FA00283FF475AF012672E700BFA6
:1038900000440258002B81D00126236813F4801FB6
:1038A00006D04F4A136D23F00043616F0B4313653D
:1038B000236813F0805F07D0494A136923F48043DB
:1038C000D4F8B8100B431361236813F4001F06D01B
:1038D000434A136D23F08073E16E0B431365236835
:1038E00013F0804F09D03E4B1A6922F400421A614E
:1038F0001A69D4F8BC100A431A612368002B06DA4F
:10390000374AD36C23F04053616D0B43D364236873
:1039100013F4000F07D0324A536D23F44003D4F858
:103920008C100B435365636813F0010F21D163685A
:1039300013F0020F26D1636813F0040F2BD16368D4
:1039400013F0080F30D1636813F0100F35D163689E
:1039500013F0200F3AD106B101263046F8BD0126FA
:103960009BE71F4AD36A43F40033D36216E72E461F
:1039700093E7002104F10800FFF7E2F90028D6D010
:103980000646D4E7012104F10800FFF7D9F9002821
:10399000D1D00646CFE7022104F10800FFF7D0F9A5
:1039A0000028CCD00646CAE7002104F12800FFF722
:1039B0004DFA0028C7D00646C5E7012104F12800CA
:1039C000FFF744FA0028C2D00646C0E7022104F1FE
:1039D0002800FFF73BFA0028BDD00646BBE700BF32
:1039E0000044025810B4036A046A24F0010404621B
:1039F000846924F0F00C4CEA021223F00A030B4312
:103A0000826103625DF8044B704710B4036A046A74
:103A100024F010040462846924F4704C4CEA0232ED
:103A200023F0A00343EA0113826103625DF8044BB3
:103A3000704700008268034B13400B4343F00703B9
:103A4000836070478FFFCFFF90F83D30DBB2012BD2
:103A500035D1022380F83D3003681B4AB3F1804F13
:103A600018BF93421DD0A2F57C42934219D002F5B3
:103A70008062934215D002F58062934211D002F524
:103A8000784293420DD0A2F56C42934209D002F5E0
:103A90009432934205D01A6842F001021A60002065
:103AA00070479968094A0A40062A18BFB2F5803F54
:103AB00007D01A6842F001021A6000207047012006
:103AC00070470020704700BF000001400700010060
:103AD00090F83D30DBB2012B3AD1022380F83D3023
:103AE0000268D36843F00103D36003681A4AB3F154
:103AF000804F18BF93421DD0A2F57C42934219D04B
:103B000002F58062934215D002F58062934211D093
:103B100002F5784293420DD0A2F56C42934209D04F
:103B200002F59432934205D01A6842F001021A60FD
:103B3000002070479968094A0A40062A18BFB2F562
:103B4000803F07D01A6842F001021A6000207047D7
:103B5000012070470020704700000140070001006D
:103B6000704770477047704770B504460368DE6859
:103B70001D6915F0020F10D016F0020F0DD06FF076
:103B800002021A610123037703689B6913F0030F94
:103B900064D0FFF7E6FF0023237715F0040F12D05F
:103BA00016F0040F0FD023686FF004021A6102238D
:103BB000237723689B6913F4407F55D02046FFF795
:103BC000D0FF0023237715F0080F12D016F0080F4E
:103BD0000FD023686FF008021A610423237723684B
:103BE000DB6913F0030F46D02046FFF7BAFF00232E
:103BF000237715F0100F12D016F0100F0FD0236896
:103C00006FF010021A61082323772368DB6913F42D
:103C1000407F37D02046FFF7A4FF0023237715F01D
:103C2000010F02D016F0010F33D115F4025F02D05C
:103C300016F0800F35D115F4807F02D016F0800F7A
:103C400037D115F0400F02D016F0400F39D115F0E2
:103C5000200F02D016F0200F3BD170BDFFF780FF80
:103C60002046FFF77FFF96E72046FFF779FF2046C3
:103C7000FFF778FFA5E72046FFF772FF2046FFF722
:103C800071FFB4E72046FFF76BFF2046FFF76AFF9E
:103C9000C3E723686FF001021A61204603F0BCFB02
:103CA000C3E723686FF402521A61204600F0CFF98F
:103CB000C1E723686FF480721A61204600F0C8F9EA
:103CC000BFE723686FF040021A612046FFF74BFF01
:103CD000BDE723686FF020021A61204600F0B6F9B4
:103CE000BBE7000030B503683D4A904214BF4FF077
:103CF000000E4FF0010EB0F1804F14BF72464EF02F
:103D00000102AAB9374CA04214BF00240124364D49
:103D1000A8420DD064B904F1804404F58234A04275
:103D200014BF0024012405F50065A84200D01CB191
:103D300023F070034C68234312BB2A4A904214BFFD
:103D400000220122284CA0421AD0CAB902F18042B6
:103D500002F58232904214BF0022012204F5006471
:103D6000A0420DD062B9214A904214BF0022012224
:103D700004F59A34A04203D012B91D4A904204D1EE
:103D800023F4407CCB6843EA0C0323F080034A69A8
:103D9000134303608A68C2620A688262154A9042CD
:103DA00014BF73464EF0010363B9104B984214BF21
:103DB0000023012302F57052904203D013B90C4B3B
:103DC000984201D10B69036301234361036913F036
:103DD000010F03D0036923F00103036130BD00BF6D
:103DE0000000014000080040000400400044014081
:103DF000004801400004014060B310B5044690F84B
:103E00003D3013B3022384F83D30214651F8040BB2
:103E1000FFF768FF012384F8483084F83E3084F8C7
:103E20003F3084F8403084F8413084F8423084F8E0
:103E3000433084F8443084F8453084F8463084F8C0
:103E4000473084F83D30002010BD80F83C3004F04D
:103E500015FAD7E70120704710B4846824F47F4C2A
:103E600042EA03220A4342EA0C0282605DF8044BF4
:103E70007047000090F83C30012B00F08F8010B5A7
:103E80000446012380F83C30022380F83D3002686C
:103E90009068434B034093600B68702B55D031D82A
:103EA000502B6CD00CD9602B2AD1CA684968206885
:103EB000FFF7ABFD60212068FFF7BCFD002035E077
:103EC000402B0AD1CA6849682068FFF78BFD402162
:103ED0002068FFF7AFFD002028E05BD8202B07D03B
:103EE00003D9302B04D0012020E00BB1102B05D1D9
:103EF00019462068FFF79EFD002017E0012015E01D
:103F0000012013E0B3F5005F2CD00BD9254A934272
:103F1000EED012D9244A9342EAD010329342E7D02D
:103F2000012003E0B3F5805F36D10020012384F83F
:103F30003D30002384F83C3010BDB3F5801FD7D04E
:103F4000B3F1101FD4D00120F0E7CB684A6889682C
:103F50002068FFF781FF2268936843F0770393603E
:103F60000020E3E7CB684A6889682068FFF774FFA0
:103F70002268936843F4804393600020D6E7CA68C0
:103F800049682068FFF72EFD50212068FFF752FD99
:103F90000020CBE70120C9E70120C7E702207047D6
:103FA0008800CEFF200010003000100090F83C3058
:103FB000012B45D070B4012380F83C30022380F8F7
:103FC0003D3003685A689C681E4E1F4DAB4218BFB7
:103FD000B34203D122F470024D682A4322F07002EA
:103FE0000D682A435A600368164AB3F1804F18BF20
:103FF000934217D0A2F57C42934213D002F580621F
:1040000093420FD002F5806293420BD002F57842C2
:10401000934207D0A2F56C42934203D002F594324A
:10402000934204D124F080048A6814439C600123E5
:1040300080F83D30002380F83C30184670BC704753
:1040400002207047000001400004014070477047A3
:10405000704782B000230193019B01330193019BC0
:10406000B3F1706F15D80369002BF5DA00230193C3
:10407000036943F001030361019B01330193019B39
:10408000B3F1706F08D8036913F0010FF4D1002069
:1040900000E0032002B070470320FBE784B010B5B6
:1040A000044603A880E80E009DF81130012B1FD1B3
:1040B000A36B23F48033A363E2681F4B1340E360D8
:1040C000E36823F44013E3609DF81830012B0AD015
:1040D0002046FFF7BEFF9DF80E30012B1CD0BDE837
:1040E000104004B07047E36843F48013E360EFE7E7
:1040F000E36843F04003E3602046FFF7AAFF9DF822
:10410000153023B9A36B43F48033A363E3E7A36BB8
:1041100023F48033A363DEE7E36D9BB2E365E26DD6
:10412000064B1343E365A36843F00603A360A3684B
:1041300043F02003A360D2E7BFFFBDFF0000EE0302
:10414000022A0AD00921C26822F47052C260C368F0
:1041500043EA8123C36000207047204B0B44204A70
:10416000934229D91F4B0B441F4A934226D91F4B18
:104170000B441F4A934223D91E4B0B441E4A9342C1
:1041800020D31E4B0B441E4A93421DD91D4B0B449A
:104190001D4A93421AD31D4B0B441D4A934217D319
:1041A0001C4B0B441C4A934214D31C4B0B441C4A1B
:1041B000934211D20721C6E70F21C4E70E21C2E7BF
:1041C0000D21C0E70C21BEE70B21BCE70A21BAE7AD
:1041D0000921B8E70821B6E70621B4E7405327FFD5
:1041E000FF340C00401E1BFF3F420F0000DC0BFFA2
:1041F0007F4F1200808CF9FE20D6130060B6E5FEDA
:104200005FE3160000D3CEFE40771B00C05BB3FE19
:10421000C091210000CA91FE20753800E05459FE7B
:10422000E09C4100836843F00103836000207047F5
:10423000836823F0010383600020704782B000236D
:104240000193019B01330193019BB3F1706F15D86A
:104250000369002BF5DA00230193890141F0200165
:104260000161019B01330193019BB3F1706F08D889
:10427000036913F0200FF4D1002000E0032002B006
:1042800070470320FBE782B000230193019B0133B9
:104290000193019BB3F1706F13D80369002BF5DA1A
:1042A0000023019310230361019B01330193019BC0
:1042B000B3F1706F08D8036913F0100FF4D1002028
:1042C00000E0032002B070470320FBE7D0F800387D
:1042D0001943C0F8001800207047000084B0F8B5FA
:1042E000044607A880E80E00002306E003F1400220
:1042F00004EB82020021516001330E2BF6D99DF8A8
:10430000266006BBD4F8043843F00203C4F804382E
:10431000A36B23F40013A363236843F040032360DB
:10432000236843F0800323600023C4F8003E9DF817
:104330002130012B11D19DF81F304BB900212046AF
:10434000FFF7C4FF0DE0A36B43F40013A363EBE797
:1043500001212046FFF7BAFF03E003212046FFF7C3
:10436000B5FF10212046FFF769FF054600B1012582
:104370002046FFF788FF00B1012504F5006C0023FB
:10438000CCF81030CCF81430CCF81C300AE0CBB9A3
:104390004FF00060C2F8000900220A614FF67F3238
:1043A0008A6001339DF81C10994210D904EB431226
:1043B00002F51061D2F800090028E8DB0020C2F8FD
:1043C0000009E9E74FF09040C2F80009E4E7002354
:1043D0000AE0BBB14FF09047C2F8007B00220261B7
:1043E0004FF67F3282600133994210D904EB4312B9
:1043F00002F53060D2F8007B002FEADB0027C2F81C
:10440000007BEBE74FF00067C2F8007BE6E7DCF8E3
:10441000103023F48073CCF810300023A3616FF0C8
:10442000804363619DF81E301BB9A36943F01003FC
:10443000A361A2690A4B1343A3619DF822301BB10B
:10444000A36943F00803A361012E04D02846BDE808
:10445000F84004B07047A269024B1343A361F5E72B
:1044600000383C8004000040D0F8083813F0060300
:1044700005D0062B18BF022B03D102207047002065
:1044800070470F207047000010B591F800C04B78BE
:10449000012B21D000F5006ED0F81C380CF00F0471
:1044A0000122A24043EA0243C0F81C3800EB4C1042
:1044B000D0F8003B13F4004F0CD1D0F8002B8B68E0
:1044C000C3F30A03097943EA81431343144A1A43A5
:1044D000C0F8002B002010BDD0F81C280CF00F0EE7
:1044E00003FA0EF39BB21343C0F81C3800EB4C10D8
:1044F000D0F8003913F4004FECD1D0F800298B68C4
:10450000C3F30A03097943EA814343EA8C5C42EA34
:104510000C0C034B4CEA0303C0F80039DAE700BF88
:104520000080001030B40B784A78012A26D000EBC6
:104530004313D3F8002B002A52DBD0F83C480A780A
:1045400002F00F024FF0010C0CFA02F224EA0242D0
:10455000C0F83C28D0F81C28097801F00F010CFAAB
:1045600001FC22EA0C42C0F81C28D3F8001B234AA5
:104570000A40C3F8002B002030BC704700EB431307
:10458000D3F80029002A1EDBD0F83C580A7802F044
:104590000F02012404FA02F292B225EA0202C0F8E4
:1045A0003C28D0F81C28097801F00F018C40A4B2F7
:1045B00022EA0404C0F81C48D3F80019104A0A4043
:1045C000C3F80029D7E7D3F8002942F00062C3F806
:1045D0000029D3F8002942F08042C3F80029D3E72C
:1045E000D3F8002B42F00062C3F8002BD3F8002B65
:1045F00042F08042C3F8002B9FE700BF0078F3EF42
:10460000007833EC10B483B002460023019348785D
:1046100001280BD00B7802EB4313D3F8000B0028D2
:104620002DDB002003B05DF8044B70470B7802EBE4
:104630004313D3F80049002C01DB0020F2E7D3F844
:10464000004944F00064C3F800490B7802EB4313BF
:10465000D3F8004944F08044C3F80049019B01337A
:104660000193019C42F210739C42DBD80B7802EB61
:104670004313D3F80039002BF0DB0020D2E7D3F846
:10468000000B40F00060C3F8000B0B7802EB431303
:10469000D3F8000B40F08040C3F8000B019B0133BE
:1046A0000193019842F21073984208D80B7802EBFC
:1046B0004313D3F8003B002BF0DB0020B2E70120CE
:1046C000B0E710B59DF8084084B903334FEA930E64
:1046D0004FF0000C08E000EB023303F5805351F873
:1046E000044B1C600CF1010CF445F4D3002010BD08
:1046F000F0B583B00C784B78012B2DD000EB441C27
:104700000CF530631E69864D35401D611E69854D6F
:1047100035401D61002C40F0C7800C690CB18C68DD
:104720000C618C680C621D69C4F312042C431C617B
:104730001C6944F400241C61012A00F0D8800B7924
:10474000012B00F0DA80DCF8003B43F00443CCF8A6
:10475000003B002003B0F0BD0B6973BB00EB4413BA
:10476000D3F810696F4D3540C3F81059D3F810597C
:1047700045F40025C3F81059D3F81069684D354049
:10478000C3F81059012A4DD000EB4414D4F8003975
:1047900043F00443C4F800390B79012B6BD00B694B
:1047A000002BD6D0D0F834380A7802F00F0101225D
:1047B0008A401343C0F83438CBE700EB441303F5C9
:1047C00010631E69564D35401D611E69554D3540BB
:1047D0001D61D4B90E698D68AE4200D90D611D69A5
:1047E00045F400251D611D690E69C6F312063543A7
:1047F0001D610D79012DC5D11D6925F0C0451D61D3
:104800001D6945F000551D61BCE71E690D698F6883
:104810003D44013DB5FBF7F5434F07EAC545354338
:104820001D61E0E7CB691BB100EB4412C2F81439FB
:104830000B79012B08D000EB4410D0F8003943F07D
:104840000443C0F8003984E7D0F8083813F4807FB7
:1048500008D100EB4412D2F8003943F00053C2F8FB
:104860000039E8E700EB4412D2F8003943F08053F6
:10487000C2F80039DFE7D0F8083813F4807F0CD194
:10488000D4F8003943F00053C4F8003900920B8A81
:104890000A78C968FFF715FF5BE7D4F8003943F0E1
:1048A0008053C4F80039F1E70C6954B91C698D686C
:1048B000C5F312052C431C611C6944F400241C61DF
:1048C0003AE78D682C44013CB4FBF5F4A4B204FB38
:1048D00005F50D621D69144E06EAC4442C431C61A3
:1048E0001C690D6AC5F312052C431C6124E7CA68D4
:1048F000002A3FF424AF5A6121E7D0F8083813F4B6
:10490000807F06D1DCF8003B43F00053CCF8003B3D
:1049100019E7DCF8003B43F08053CCF8003B12E78A
:104920000000F8FFFFFF07E00000F81F00B583B0AC
:10493000844608464FEA920E02F00302002305E087
:104940000CF58051096840F8041B01337345F7D317
:104950009AB10CF5805CDCF8003001934FF0000C4C
:104960005FFA8CF3D900019BCB4000F8013B0CF1BE
:10497000010C013A92B2002AF2D103B05DF804FBB7
:104980000B784A78012A14D000EB4310D0F8002BA2
:10499000002A06DB2BB1D0F8003B23F08043C0F89F
:1049A000003BD0F8003B43F40013C0F8003B00206C
:1049B000704700EB4310D0F80029002A06DB2BB12A
:1049C000D0F8003923F08043C0F80039D0F800391E
:1049D00043F40013C0F80039E9E70B784A78012A5C
:1049E0000ED000EB4310D0F8003B23F40013C0F8C6
:1049F000003B0B79023BDBB2012B15D9002070473D
:104A000000EB4310D0F8003923F40013C0F800394C
:104A10000B79023BDBB2012BF0D8D0F8003943F020
:104A20008053C0F80039E9E7D0F8003B43F08053E9
:104A3000C0F8003BE2E7D0F8003823F4FE63C0F88A
:104A40000038D0F80038090101F4FE611943C0F8BC
:104A5000001800207047D0F8003E23F00303C0F890
:104A6000003ED0F8043823F00203C0F804380020D8
:104A70007047D0F8003E23F00303C0F8003ED0F8A2
:104A8000043843F00203C0F804380020704742693C
:104A9000806910407047D0F8183800F50060C06990
:104AA0001840000C7047D0F8183800F50060C06955
:104AB000184080B2704700EB4111D1F8082B00F587
:104AC000006040691040704710B4D0F81048D0F82A
:104AD000343801F00F02D340DB01DBB2234300EB9B
:104AE000411000F51060806818405DF8044B704775
:104AF000406900F00100704738B50546C36823F0EF
:104B0000C043C360012913D019BBC36843F080437D
:104B1000C36000240A20FBF723FC0A342846FFF771
:104B2000E7FF08B1C72CF5D9C82C14D0002038BD38
:104B3000C36843F00053C36000240A20FBF710FC55
:104B40000A342846FFF7D4FF0128EDD0C72CF4D94A
:104B5000EAE70120EBE70120E9E70000D0F80029AF
:104B6000054B1340C0F80039D0F8043843F4807383
:104B7000C0F804380020704700F8FFFF10B4046C40
:104B8000154B9C4203D9D0F8003B002B16DB0024C8
:104B9000C0F8104BD0F8104B44F40024C0F8104B70
:104BA000D0F8104B44F01804C0F8104BD0F8104B5C
:104BB00044F0C044C0F8104B012903D000205DF838
:104BC000044B7047C0F8142BD0F8003B43F080230F
:104BD000C0F8003BF2E700BF0A30544F98B108B567
:104BE00003460020C3F8B802C3F8C402C3F8D002D9
:104BF00009B1C3F8B412012183F89C121A70184647
:104C000002F05CFD08BD0320704710B582B00023A0
:104C1000ADF8063089B10446C0F8B812CB6A23B1AA
:104C20000DF106009847C4F8D002D4F8D832013309
:104C3000C4F8D832002002B010BD0320FBE708B54D
:104C400002F06EFD08BD08B5D0F8B83213B11B688C
:104C5000984708BD0020FCE708B5D0F8B8325B687B
:104C6000984700B908BD0320FCE738B5044600F2B8
:104C7000AA25284600F0A3F90123C4F89432B4F819
:104C8000B032C4F8983294F8AA1201F01F03012B35
:104C90000DD0022B10D02BB101F08001204602F084
:104CA0005AFD03E02946204600F074FB38BD294632
:104CB000204600F0AAFBF9E72946204600F0E7FB72
:104CC000F4E7F8B50446012380F89C320023C0F8CD
:104CD00094324360C0F8A43280F8A032D0F8B832E1
:104CE000DBB15B68DBB1002198470746C8B94023B8
:104CF00000221146204602F01BFD0126A4F8646143
:104D00004025C4F860512B4600228021204602F045
:104D10000FFDA68425623846F8BD0027E7E7002787
:104D2000E5E70327E3E701740020704790F89C3221
:104D3000DBB2042B04D090F89C32DBB280F89D32B9
:104D4000042380F89C320020704790F89C32DBB23C
:104D5000042B01D00020704790F89D32DBB280F820
:104D60009C32F7E708B590F89C32DBB2032B01D0F8
:104D7000002008BDD0F8B832002BF9D0DB69002B39
:104D8000F6D09847F4E708B5D0F8D432AE3350F8EF
:104D900023205AB190F89C32DBB2032B01D00020C3
:104DA00008BD136A23B198470020F9E70320F7E70D
:104DB0000020F5E708B5D0F8D432AE3350F8232000
:104DC0005AB190F89C32DBB2032B01D0002008BD11
:104DD000536A23B198470020F9E70320F7E7002042
:104DE000F5E70020704708B5012380F89C32D0F821
:104DF000B83223B15B680179984710B908BD00202B
:104E0000FCE70320FAE7002070470020704738B520
:104E100004460D46002943D11346D0F89422032AB4
:104E200001D0084638BDD0F85C11D0F8602191421D
:104E300012D890F8AA3203F01F03012B17D0022BCF
:104E40001CD0284694F89C32DBB2032B1BD02046A2
:104E500000F07FFC2846E5E7891AC0F85C118A4219
:104E600028BF0A46194600F06CFC2846DAE790F89D
:104E7000AE12FFF7C8FF0028E9D1E3E790F8AE12C1
:104E8000FFF7C3FFF7E700F1AE0354F823301A69C8
:104E9000002ADCD0C4F8D4021B6920469847D6E724
:104EA00001F07F01FFF7B1FF90B994F89C32DBB2BB
:104EB000032BB7D100F1AE0354F823309A69002ACE
:104EC000B0D0C4F8D4029B69294620469847A9E788
:104ED0000020A7E738B504460D4600294BD11346FC
:104EE000D0F89422022A07D094F8A00218B1002327
:104EF00084F8A032284638BDC269016A8A420ED8B9
:104F00008A4218D094F89C32DBB2032B27D0802140
:104F1000204602F020FC204600F026FCE4E7521A6E
:104F2000C261194600F0F6FB00231A4619462046D6
:104F300002F047FCD8E783699942E3D8D0F8982279
:104F40009342DFD20022114600F0E4FB0021C4F8B6
:104F500098120B460A46204602F033FCC4E7D4F808
:104F6000B832DA68002AD2D00022C4F8D422DB6832
:104F700020469847CBE741F08001FFF746FF90B904
:104F800094F89C32DBB2032BB5D100F1AE0354F898
:104F900023305A69002AAED0C4F8D4025B6929468E
:104FA00020469847A7E70020A5E70346002002E037
:104FB0000130C0B201331A78002AF9D170470B785A
:104FC00003704B7843708B78CA7843EA022343809E
:104FD0000B794A7943EA022383808B79CA7943EAC1
:104FE0000223C380704710B50446802102F0B3FB52
:104FF0000021204602F0AFFB10BD70B582B0044620
:105000000D460023ADF806304A88130A013B062BF3
:1050100000F2C180DFE803F0041F33BFBFA3B0007C
:10502000D0F8B4321B680DF10601007C9847EA887D
:10503000002A00F0B980BDF80630002B00F0AF80E8
:105040009A4228BF1A46ADF806200146204600F0D5
:1050500054FB02B070BD037C43B9D0F8B8329B6AF0
:105060000DF10600984702234370E0E7D0F8B8320C
:10507000DB6A0DF10600984702234370D7E7D2B2EE
:10508000052A69D8DFE802F003101D2A3744D0F85A
:10509000B4325B6823B10DF10601007C9847C6E786
:1050A0002946FFF7A0FFD4E7D0F8B4329B6823B1BC
:1050B0000DF10601007C9847B9E72946FFF793FFF9
:1050C000C7E7D0F8B432DB6823B10DF10601007CEC
:1050D0009847ACE72946FFF786FFBAE7D0F8B43225
:1050E0001B6923B10DF10601007C98479FE7294613
:1050F000FFF779FFADE7D0F8B4325B6923B10DF16A
:105100000601007C984792E72946FFF76CFFA0E76D
:10511000D0F8B4329B6923B10DF10601007C9847A9
:1051200085E72946FFF75FFF93E706F1AE0354F8E2
:1051300023309A6B52B1C4F8D4629B6B0DF1060216
:10514000A9782046984700287FF471AF0136D4F83B
:10515000D832B342E9D86AE700263046F7E7037C45
:1051600033B9D0F8B8325B6B0DF1060098475EE7B3
:105170002946FFF738FF6CE7037C43B9D0F8B83213
:105180001B6B0DF106009847072343704FE7294634
:10519000FFF729FF5DE72946FFF725FF59E7294675
:1051A0002046FFF720FF54E7204600F0D2FA50E7F0
:1051B00038B504468B88FBB9CB88EBB94B887F2B7D
:1051C0001AD803F07F0590F89C32DBB2032B0CD089
:1051D00080F89E52294602F0E4FA204600F0B9FA1F
:1051E00035B1022384F89C3209E0FFF7FCFE06E0AB
:1051F000012384F89C3202E02046FFF7F4FE38BD1C
:1052000070B504460E468D782F4B1D70012D10D8B9
:1052100090F89C32DBB2022B0FD0032B26D0FFF785
:10522000E2FE294B19782046FFF716FD0325284694
:1052300070BDFFF7D8FE0325F9E7A5B14560294603
:10524000FFF701FD054638B131462046FFF7CBFE9A
:10525000022384F89C32EAE7204600F07AFA03231E
:1052600084F89C32E3E700F074FAE0E7CDB14168DE
:105270008D4225D0C9B2FFF7EFFC134B197861605E
:105280002046FFF7E0FC0546B0B131462046FFF767
:10529000AAFE21792046FFF7DFFC022384F89C3226
:1052A000C5E7022380F89C3245602946FFF7D4FC0D
:1052B000204600F04EFABAE7204600F04AFAB6E778
:1052C00000F047FA0025B2E79000002008B5CB882F
:1052D000012B0BD190F89C32DBB2022B09D9032BA6
:1052E00009D10122011D00F008FA01E0FFF77BFE61
:1052F00008BD5BB213B9FFF776FEF9E7014600235C
:1053000041F8083F012200F0F8F9F1E708B590F8FC
:105310009C32013B022B12D8CB88022B0CD10123EB
:10532000C360D0F8A4320BB10323C360022200F1A2
:105330000C0100F0E2F908BDFFF755FEFBE7FFF7AF
:1053400052FEF8E708B54B88012B04D0022B07D09A
:10535000FFF749FE08BDC0F8A43200F0FAF9F9E7FA
:105360008B881B0A80F8A03200F0F3F9F2E708B549
:1053700090F89C32013B022B09D84B88012B00D0BE
:1053800008BD0023C0F8A43200F0E3F9F8E7FFF706
:105390002AFEF5E738B50C7804F06004202C06D01E
:1053A000402C04D06CB1FFF71EFE002407E0D0F8BB
:1053B000D432AE3350F823309B68984704462046D9
:1053C00038BD4D78092D1DD8DFE805F012191C16DF
:1053D0001C08051C0F0BFFF710FEF0E7FFF7E8FEB7
:1053E000EDE7FFF70DFF0446E9E7FFF76FFFE6E79C
:1053F000FFF78CFF2C46E2E7FFF7A4FFDFE7FFF79C
:10540000B6FFDCE7FFF7EFFDD9E770B505460C46C0
:105410000B7803F06003202B07D0402B05D023B17D
:10542000FFF7E1FD0026304670BD95F89C32013B48
:10543000022B26D82179012905D921462846FFF7D4
:10544000D2FD0026EFE72846FFF7DDFC68B900F142
:10545000AE0255F82220916889B1C5F8D40293684C
:10546000214628469847064600E00326E388002B9D
:10547000D9D1002ED7D1284600F06BF9D3E7032607
:10548000F4E721462846FFF7AEFD0026CBE72DE9DD
:10549000F04106460D468B88DFB20C7804F06004BC
:1054A000202C08D0402C06D0DCB1FFF79CFD002456
:1054B0002046BDE8F08139463046FFF7A6FC044699
:1054C000002840F0F980C6F8D40200F1AE0356F887
:1054D00023309B68002BEBD0294630469847044682
:1054E000E6E791F80180B8F1010F31D0B8F1030F70
:1054F00005D0B8F1000F66D0FFF775FDD8E790F83A
:105500009C32DBB2022B04D0032B11D0FFF76BFDD2
:10551000CEE7002F18BF802F07D0394602F01BF9C5
:105520008021304602F017F9C2E7FFF75CFDBFE7C4
:105530004B882BB9002F18BF802F01D0CB881BB10F
:10554000304600F006F9B3E7394602F004F9F7E710
:1055500090F89C32DBB2022B04D0032B11D0FFF762
:1055600042FDA5E7002F18BF802F07D0394602F073
:10557000F2F88021304602F0EEF899E7FFF733FDAC
:1055800096E74B88002B93D117F07F0F17D1304649
:1055900000F0DFF839463046FFF737FC002887D1A6
:1055A000C6F8D40200F1AE0256F822209268002A12
:1055B00000F08480294630469047044678E7394613
:1055C00002F0D1F8E3E790F89C22D2B2022A05D08B
:1055D000032A28D0FFF707FD444669E7002F18BFCC
:1055E000802F13D113F0800F14D107F07F0707EB42
:1055F0008707B90001F5A8710144043100230B604D
:105600000222304600F079F8444651E7FFF7EBFC00
:1056100044464DE707F07F0707EB8707B9001031D5
:1056200001440431EAE75BB2002B20DB07F00F02F4
:1056300002EB820200EB8202B2F8642122B3002B5B
:1056400026DB07F07F0303EB83039C0004F5A874BB
:1056500034440434802F18BF002F22D1002323604C
:1056600002222146304600F048F8444620E707F081
:105670000F0202EB820200EB8202928C002ADED142
:10568000FFF7B1FC444613E7FFF7ADFC44460FE7D4
:1056900007F07F0303EB83039C001034344404348D
:1056A000D8E73946304602F066F810B1012323608E
:1056B000D6E700232360D3E70024F9E60446F7E6A3
:1056C000D0B170B50D4616460446FFF76EFC431C7C
:1056D0005B009BB233802B7003236B70022307E0C7
:1056E000EA5401345A1CD2B20021A9540233DBB26D
:1056F0002278002AF4D170BD704708B51346022203
:10570000C0F894228361C3610A46002102F051F877
:10571000002008BD08B513460A46002102F049F8EA
:10572000002008BD08B513460322C0F89422C0F833
:105730005831C0F85C310A46002102F042F80020DE
:1057400008BD08B513460A46002102F03AF80020C9
:1057500008BD08B50422C0F8942200231A46194651
:1057600002F027F8002008BD08B50522C0F89422F1
:1057700000231A46194602F024F8002008BD00F163
:10578000080343604FF0FF328260C360036100236F
:105790000360704700230361704730B40D68B5F1B2
:1057A000FF3F11D000F108031C465B681A68AA424B
:1057B000FAD963684B6099608C6061600861036826
:1057C0000133036030BC70470469F2E70369416844
:1057D00082688A60416851605A68824206D000221D
:1057E00002611A68013A1A601868704782685A6044
:1057F000F5E710B5044601F035F8A26BE36B9A4269
:1058000004D0002401F050F8204610BD0124F9E72F
:1058100010B5044601F026F8A36B23B9012401F06A
:1058200043F8204610BD0024F9E770B5044615463C
:10583000866B026C5AB903681BB100200136A6635F
:1058400070BD806800F050FF0023A360F6E76DB9DB
:10585000406802F0A9FE226C636813446360A2688A
:10586000934219D3236863602846E7E7C06802F0D3
:105870009BFE226C5142E3689B1AE36022689342CC
:1058800002D2A3680B44E360022D01D00020D5E7CB
:1058900026B1013E0020D1E72846CFE70020CDE722
:1058A0000346026C6AB110B50846D9681144D96044
:1058B0009C68A14201D31968D960D96802F074FECE
:1058C00010BD704738B5054600F0CCFF95F845404F
:1058D00064B201E0013C64B2002C0ADD6B6A43B1A2
:1058E00005F1240000F034FE0028F3D000F0F6FEAD
:1058F000F0E7FF2385F8453000F0D6FF00F0B2FF57
:1059000095F8444064B201E0013C64B2002C0ADD29
:105910002B6943B105F1100000F01AFE0028F3D006
:1059200000F0DCFEF0E7FF2385F8443000F0BCFF18
:1059300038BD38B590B10D460446C36B2BB1026C2F
:105940000021A3FB022393B999B14FF0500383F3D5
:105950001188BFF36F8FBFF34F8FFEE74FF05003F7
:1059600083F31188BFF36F8FBFF34F8FFEE70121E1
:10597000EAE700F077FF2368E26B216C01FB02305D
:10598000A0600020A0636360013A02FB0133E36082
:10599000FF2384F8443084F84530B5B923691BB936
:1059A00000F082FF012038BD04F1100000F0D0FDAE
:1059B0000028F5D04FF0E0234FF08052C3F8042DBB
:1059C000BFF34F8FBFF36F8FEAE704F11000FFF7CB
:1059D000D6FE04F12400FFF7D2FEE1E738B51D46FC
:1059E000049C0B4649B92460E063236401212046EE
:1059F000FFF79FFF84F84C5038BD2260F4E7F0B504
:105A000083B060B10C46174605460023A0FB041284
:105A100072B923B904FB05F010F1510F0AD94FF008
:105A2000500383F31188BFF36F8FBFF34F8FFEE7EF
:105A30000123EEE7503001F0C7F8064638B1009078
:105A40003B4600F1500221462846FFF7C7FF30468B
:105A500003B0F0BDF0B585B0019238B10F461D46D8
:105A6000044661B1022D16D0002660E04FF05003CD
:105A700083F31188BFF36F8FBFF34F8FFEE7036C83
:105A8000002BEFD04FF0500383F31188BFF36F8FDB
:105A9000BFF34F8FFEE7E36B012B08D04FF05003AD
:105AA00083F31188BFF36F8FBFF34F8FFEE700269C
:105AB0003DE02A4639462046FFF7B7FE636A7BB9C8
:105AC00048B14FF0E0234FF08052C3F8042DBFF3EC
:105AD0004F8FBFF36F8F00F0E7FE012005B0F0BDE0
